:060000000A128A11E82F2C
:100B3C007E088A007F0882000A128A119E250A12FA
:100B4C008A118000840A04087D0603190034FF0A08
:100B5C000319FE0AA22D3F340034063400345B34F2
:100B6C0000344F340034663400346D3400347D343A
:100B7C000034073400347F34003467340034700898
:100B8C0071040319CA2DCB2DFA2DF401F40AD92DB9
:100B9C0001300310F00DF10DFF3E031DCF2D013080
:100BAC00FF007F08F407F11FDC2DDD2DCE2D710821
:100BBC007302031DE32D70087202031CE62DE72D52
:100BCC00ED2D7008F2027108031CF303F3020130DF
:100BDC000310F10CF00CFF3E031DEE2D0130F4025E
:100BEC00031DF92DFA2DDD2D7308F1007208F000AC
:100BFC000800F401F501700871040319062E072E84
:100C0C003E2EF601F60A152E01300310F00DF10DF3
:100C1C00FF3E031D0B2E0130FF007F08F607F11F6E
:100C2C00182E192E0A2E01300310F40DF50DFF3E6F
:100C3C00031D1A2E71087302031D262E70087202F2
:100C4C00031C292E2A2E312E7008F2027108031C67
:100C5C00F303F302741401300310F10CF00CFF3E9B
:100C6C00031D322E0130F602031D3D2E3E2E192E91
:100C7C007508F1007408F0000800FB01FC010A1271
:100C8C008A1199260A128A117C08803AFF0080305A
:100C9C007F02031D532E21307B02031C562E572E30
:100CAC008F2E013083120313DE070318DF0A003086
:100CBC00DF07FB01FC0100305F023C3003195E02D0
:100CCC00031C692E6A2E8F2E0130DC070318DD0AF7
:100CDC000030DD07DE01DF0100305D023C3003191E
:100CEC005C02031C7A2E7B2E8F2E0130DA07031840
:100CFC00DB0A0030DB07DC01DD0100305B02183061
:100D0C0003195A02031C8B2E8C2E8F2EDA01DB0159
:100D1C008F2E0130FB070318FC0A0030FC07452E10
:100D2C000A128A110028203084004630F70004088B
:100D3C00F8001430F9007708840083130008FA00D7
:100D4C00F70A780884007A088000F80AF90BA12EBB
:100D5C00831603138701831203138701831603136E
:100D6C0088018312031388010A30F0000030F1006F
:100D7C005F08F3005E08F2000A128A11C5250A12F8
:100D8C008A11710883120313B5007008B4000A307D
:100D9C00F0000030F1005F08F3005E08F2000A1268
:100DAC008A11FF250A128A11710883120313B700E6
:100DBC007008B6000A30F0000030F1003708F3007C
:100DCC003608F2000A128A11C5250A128A11710816
:100DDC0083120313B9007008B8000A30F000003019
:100DEC00F1005D08F3005C08F2000A128A11C525B7
:100DFC000A128A11710883120313BB007008BA001F
:100E0C000A30F0000030F1005D08F3005C08F200DD
:100E1C000A128A11FF250A128A1171088312031310
:100E2C00BD007008BC000A30F0000030F1003D0835
:100E3C00F3003C08F2000A128A11C5250A128A1125
:100E4C00710883120313BF007008BE000A30F00053
:100E5C000030F1005B08F3005A08F2000A128A1104
:100E6C00C5250A128A11710883120313C100700878
:100E7C00C0000A30F0000030F1005B08F3005A08A3
:100E8C00F2000A128A11FF250A128A1171088312C4
:100E9C000313C3007008C2000A30F0000030F100E8
:100EAC004308F3004208F2000A128A11C5250A12FF
:100EBC008A11710883120313C5007008C40044081A
:100ECC00F7007707203E840083130008880007147E
:100EDC002130F8007630F700F70B722FF80B722FD9
:100EEC0000008312031307104008F7007707203E19
:100EFC008400831300088800871488172130F800B9
:100F0C007630F700F70B882FF80B882F0000831230
:100F1C000313871088133E08F7007707203E8400E0
:100F2C0083130008880007152130F8007630F7008D
:100F3C00F70B9E2FF80B9E2F000083120313071143
:100F4C003A08F7007707203E8400831300088800D6
:100F5C00871588172130F8007630F700F70BB42F7F
:100F6C00F80BB42F00008312031387118813380871
:100F7C00F7007707203E84008313000888000716CB
:100F8C002130F8007630F700F70BCA2FF80BCA2F78
:100F9C0000008312031307123408F7007707203E72
:100FAC00840083130008880087162130F8007630FF
:100FBC00F700F70BDF2FF80BDF2F00008312031362
:100FCC008712080083135A30FD000530FE00B13043
:100FDC00FF00463084000A128A11A2250A128A11D7
:100FEC00DA01DB01DC01DD01DE01DF0183010A1224
:040FFC008A11432EE5
:02400E00723FFF
:00000001FF
