:060000000A128A11E82F2C
:100B0C007E088A007F0882000A128A1186250A1242
:100B1C008A118000840A04087D0603190034FF0A38
:100B2C000319FE0A8A2D3F340034063400345B343A
:100B3C0000344F340034663400346D3400347D346A
:100B4C000034073400347F340034673400347008C8
:100B5C0071040319B22DB32DE22DF401F40AC12D49
:100B6C0001300310F00DF10DFF3E031DB72D0130C8
:100B7C00FF007F08F407F11FC42DC52DB62D710899
:100B8C007302031DCB2D70087202031CCE2DCF2DCA
:100B9C00D52D7008F2027108031CF303F302013027
:100BAC000310F10CF00CFF3E031DD62D0130F402A6
:100BBC00031DE12DE22DC52D7308F1007208F00024
:100BCC000800F401F501700871040319EE2DEF2DE6
:100BDC00262EF601F60AFD2D01300310F00DF10D55
:100BEC00FF3E031DF32D0130FF007F08F607F11FB8
:100BFC00002E012EF22D01300310F40DF50DFF3EE9
:100C0C00031D022E71087302031D0E2E7008720252
:100C1C00031C112E122E192E7008F2027108031CDF
:100C2C00F303F302741401300310F10CF00CFF3ECB
:100C3C00031D1A2E0130F602031D252E262E012E21
:100C4C007508F1007408F0000800FB01FC010A12A1
:100C5C008A1181260A128A117C08803AFF008030A2
:100C6C007F02031D3B2E21307B02031C3E2E3F2EA8
:100C7C00772E013083120313DE070318DF0A0030CE
:100C8C00DF07FB01FC0100305F023C3003195E0200
:100C9C00031C512E522E772E0130DC070318DD0A6F
:100CAC000030DD07DE01DF0100305D023C3003194E
:100CBC005C02031C622E632E772E0130DA070318B8
:100CCC00DB0A0030DB07DC01DD0100305B02183091
:100CDC0003195A02031C732E742E772EDA01DB01D2
:100CEC00772E0130FB070318FC0A0030FC072D2E71
:100CFC000A128A110028203084004630F7000408BC
:100D0C00F8001430F9007708840083130008FA0007
:100D1C00F70A780884007A088000F80AF90B892E03
:100D2C00831603138701831203138701831603139E
:100D3C0088018312031388010A30F0000030F1009F
:100D4C005F08F3005E08F2000A128A11AD250A1240
:100D5C008A11710883120313B5007008B4000A30AD
:100D6C00F0000030F1005F08F3005E08F2000A1298
:100D7C008A11E7250A128A11710883120313B7002E
:100D8C007008B6000A30F0000030F1003708F300AC
:100D9C003608F2000A128A11AD250A128A1171085E
:100DAC0083120313B9007008B8000A30F000003049
:100DBC00F1005D08F3005C08F2000A128A11AD25FF
:100DCC000A128A11710883120313BB007008BA004F
:100DDC000A30F0000030F1005D08F3005C08F2000E
:100DEC000A128A11E7250A128A1171088312031359
:100DFC00BD007008BC000A30F0000030F1003D0866
:100E0C00F3003C08F2000A128A11AD250A128A116D
:100E1C00710883120313BF007008BE000A30F00083
:100E2C000030F1005B08F3005A08F2000A128A1134
:100E3C00AD250A128A11710883120313C1007008C0
:100E4C00C0000A30F0000030F1005B08F3005A08D3
:100E5C00F2000A128A11E7250A128A11710883120C
:100E6C000313C3007008C2000A30F0000030F10018
:100E7C004308F3004208F2000A128A11AD250A1247
:100E8C008A11710883120313C5007008C40044084A
:100E9C00F7007707203E84008313000888000714AE
:100EAC002130F8007630F700F70B5A2FF80B5A2F39
:100EBC000000FE30FF007F088312031387054008F3
:100ECC00F7007707203E84008313000888008714FE
:100EDC0088172130F8007630F700F70B732FF80BDA
:100EEC00732F0000FD30FF007F088312031387056A
:100EFC007F30FF007F0888053E08F7007707203E0B
:100F0C00840083130008880007152130F800763020
:100F1C00F700F70B8F2FF80B8F2F0000FB30FF0023
:100F2C007F088312031387053A08F7007707203EE2
:100F3C008400831300088800871588172130F80077
:100F4C007630F700F70BA82FF80BA82F0000F7301E
:100F5C00FF007F088312031387057F30FF007F0893
:100F6C0088053808F7007707203E840083130008B3
:100F7C00880007162130F8007630F700F70BC42FE5
:100F8C00F80BC42F0000EF30FF007F08831203130F
:100F9C0087053408F7007707203E84008313000888
:100FAC00880087162130F8007630F700F70BDC2F1D
:100FBC00F80BDC2F0000DF30FF007F0883120313D7
:100FCC008705080083135A30FD000530FE00993068
:100FDC00FF00463084000A128A118A250A128A11EF
:100FEC00DA01DB01DC01DD01DE01DF0183010A1224
:040FFC008A112B2EFD
:02400E00713F00
:00000001FF
